:04000000DBEF0BF037
:0D100000000E1B111111111F0025690000C9
:10100E002F50D8B40DEF08F00FEF08F02DEF08F0C9
:10101E002F50D96EDA6ADF30E832E832070B306EC5
:10102E00080E30601DEF08F01FEF08F02DEF08F0EE
:10103E002F50D96EDA6ADF50070B306E040E306413
:10104E002BEF08F02DEF08F082EF08F098EF08F084
:10105E002F50D96EDA6ADF30E832E832070B306E85
:10106E00010E316E302A3EEF08F0D8903136302E18
:10107E003CEF08F02F50D96EDA6ADF50070B020DE5
:10108E00F350150FD96EDA6ADECF32F0DDCF33F0C2
:10109E0032C0D9FF33C0DAFF3150DF122DEF08F026
:1010AE002F50D96EDA6ADF30E832E832070B306E35
:1010BE00010E316E302A66EF08F0D8903136302EA0
:1010CE0064EF08F03150FF0A326E2F50D96EDA6A93
:1010DE00DF50070B020DF350150FD96EDA6ADECF13
:1010EE0033F0DDCF34F033C0D9FF34C0DAFF3250E5
:1010FE00DF162DEF08F02F50D96EDA6ADFBC8AEFBB
:10110E0008F08DEF08F0010E8EEF08F0000E000AC9
:10111E00D8B457EF08F0010AD8B42FEF08F02DEF2E
:10112E0008F0010E12002F50D8B4A0EF08F0A2EF75
:10113E0008F0C0EF08F02F50D96EDA6ADF30E832CF
:10114E00E832070B316E080E3160B0EF08F0B2EFE7
:10115E0008F0C0EF08F02F50D96EDA6ADF50070B97
:10116E00316E040E3164BEEF08F0C0EF08F015EFDB
:10117E0009F02AEF09F02F50D96EDA6ADF30E83223
:10118E00E832070B316E010E326E312AD1EF08F0C4
:10119E00D8903236312ECFEF08F03250FF0A336E30
:1011AE002F50D96EDA6ADF50070B020DF350010F84
:1011BE00D96EDA6ADECF34F0DDCF35F034C0D9FF28
:1011CE0035C0DAFF3350DF16C0EF08F02F50D96E5E
:1011DE00DA6ADF30E832E832070B316E010E326E1A
:1011EE00312AFCEF08F0D8903236312EFAEF08F0A3
:1011FE002F50D96EDA6ADF50070B020DF350010F34
:10120E00D96EDA6ADECF33F0DDCF34F033C0D9FFDA
:10121E0034C0DAFF3250DF12C0EF08F03050316EBA
:10122E00326A3250000AD8B41FEF09F0C0EF08F04E
:10123E003150000AD8B4C2EF08F0010AD8B4EDEF6D
:10124E0008F0C0EF08F0010E12003E50D8A432EFA5
:10125E0009F034EF09F036EF09F0ACEF09F03EC0BB
:10126E0036F0B7EC0AF0426E3E28366EB7EC0AF056
:10127E004216000E416E3E504124020F366EB7EC00
:10128E000AF04216412A070E416450EF09F052EF60
:10129E0009F042EF09F0030E406E080E3F6E770E16
:1012AE00E82EFED73F2EFCD7402EFAD700003EC0C8
:1012BE0038F0380E396E2EEC0BF04216820E3F6E61
:1012CE00DE0EE82EFED73F2EFCD73EC038F0380E8D
:1012DE00396E2EEC0BF04216040E3F6EE40EE82E25
:1012EE00FED73F2EFCD700D03EC038F0380E396EF8
:1012FE002EEC0BF042163EC038F0010E396E2EEC7D
:10130E000BF042163EC038F0020E396E2EEC0BF08A
:10131E0042163EC038F0060E396E2EEC0BF0421619
:10132E003EC038F00C0E396E2EEC0BF042163EC05D
:10133E0038F0380E396E2EEC0BF042163EC038F0F7
:10134E00800E396E2EEC0BF0421612003F50D8A4D0
:10135E00B3EF09F0B5EF09F0B7EF09F02DEF0AF092
:10136E003FC036F0B7EC0AF0436E3F28366EB7EC4E
:10137E000AF04316000E426E3F504224020F366EA4
:10138E00B7EC0AF04316422A030E4264D1EF09F07D
:10139E00D3EF09F0C3EF09F0030E416E080E406E55
:1013AE00770EE82EFED7402EFCD7412EFAD700003E
:1013BE003FC03CF0380E3D6E68EC0BF04316820ECB
:1013CE00406EDE0EE82EFED7402EFCD73FC03CF01E
:1013DE00380E3D6E68EC0BF04316040E406EE40EB4
:1013EE00E82EFED7402EFCD700D03FC03CF0380E82
:1013FE003D6E68EC0BF043163FC03CF0010E3D6EA7
:10140E0068EC0BF043163FC03CF0020E3D6E68ECEC
:10141E000BF043163FC03CF0060E3D6E68EC0BF031
:10142E0043163FC03CF00C0E3D6E68EC0BF04316BD
:10143E003FC03CF0280E3D6E68EC0BF043163FC0EB
:10144E003CF0800E3D6E68EC0BF043161200010E60
:10145E004D6E4750D8A436EF0AF038EF0AF042EF3F
:10146E000AF04A50D8A43EEF0AF040EF0AF042EFDD
:10147E000AF072EF0AF047C038F04B50080DF350E7
:10148E00400F396E2EEC0BF04D16000E4E6E47C00F
:10149E0038F04A504E244C6E4CC0F6FF100EF76ECC
:1014AE00F86A0800F5CF39F0F4EC0AF04D164E2A22
:1014BE00070E4E6465EF0AF067EF0AF04EEF0AF082
:1014CE0047C042F048C043F049C044F04BC045F01D
:1014DE00BDEC0BF04D1612004006A2EF0AF03EC016
:1014EE0038F04050800F396E2EEC0BF0416EB5EF98
:1014FE000AF03EC038F04050C00F396E2EEC0BF0A3
:10150E00416EB5EF0AF03EC038F04050940F396E80
:10151E002EEC0BF0416EB5EF0AF03EC038F04050A5
:10152E00D40F396E2EEC0BF0416EB5EF0AF0010EB2
:10153E00416EB5EF0AF03F50010AD8B476EF0AF0CB
:10154E00030AD8B480EF0AF0010AD8B48AEF0AF081
:10155E00070AD8B494EF0AF09EEF0AF04150120039
:10156E003650D8B4BDEF0AF0BFEF0AF0DDEF0AF047
:10157E003650D96EDA6ADF30E832E832070B376E52
:10158E00080E3760CDEF0AF0CFEF0AF0DDEF0AF06C
:10159E003650D96EDA6ADF50070B376E040E376499
:1015AE00DBEF0AF0DDEF0AF0E1EF0AF0010E386E24
:1015BE00F2EF0AF036C02FF007EC08F0386E36C0A6
:1015CE002FF03650D96EDA6A000EDFBE010E306E85
:1015DE009AEC08F03816385012003850D8A4FAEFAA
:1015EE000AF0FCEF0AF000EF0BF0010E3C6E2CEF50
:1015FE000BF038C02FF0010E306E9AEC08F03C6EF6
:10160E00000E3D6E38503D24020F2F6E3DC03AF055
:10161E0039C03BF03A2A16EF0BF0D8903B323A2EF7
:10162E0014EF0BF03B50010B306E9AEC08F03C16A9
:10163E003D2A070E3D6426EF0BF028EF0BF009EF65
:10164E000BF038C036F021EC0CF03C501200385044
:10165E00D8A434EF0BF036EF0BF03AEF0BF0010E8F
:10166E003C6E66EF0BF038C02FF0000E306E9AEC29
:10167E0008F03C6E000E3D6E38503D24020F2F6E6A
:10168E003DC03AF039C03BF03A2A50EF0BF0D890FB
:10169E003B323A2E4EEF0BF03B50010B306E9AEC74
:1016AE0008F03C163D2A070E3D6460EF0BF062EF2A
:1016BE000BF043EF0BF038C036F021EC0CF03C5041
:1016CE0012003C50D8A46EEF0BF070EF0BF074EFDD
:1016DE000BF0010E3E6E94EF0BF03CC02FF0000E9F
:1016EE00306E9AEC08F03E6E3CC036F03D380F0B73
:1016FE00376E96EC0BF03E163CC036F00BEC0CF051
:10170E003E163CC036F03DC037F096EC0BF03E1660
:10171E003CC036F00BEC0CF03E163E501200010EA3
:10172E003A6E000E3B6E000E3B6E36503B24020F9F
:10173E002F6E3BC038F037C039F0382AA9EF0BF0C6
:10174E00D8903932382EA7EF0BF03950010B306E8E
:10175E009AEC08F03A163B2A030E3B64B9EF0BF0F5
:10176E00BBEF0BF09CEF0BF03A5012004250D8A496
:10177E00C3EF0BF0C5EF0BF0C9EF0BF0010E466E89
:10178E00D9EF0BF042C03EF044C03FF045C040F0F0
:10179E0073EC0AF0466E42C038F043C039F0F4ECF8
:1017AE000AF0461646501200E80EF66E170EF76E49
:1017BE00000EF86E00EE01F010EE2EF00900F5CFDF
:1017CE00EEFFE550E150FAE100EE4FF0180EEE6A32
:1017DE00E806FDE1000136EF0CF0890F8A0F8B0F42
:1017EE008C0F8D0F800F810F820F830F840F920F3E
:1017FE00930F940F950F960F323A030B131B232B57
:10180E00333B020A121A222A010E376E36282F6E29
:10181E00010E306E9AEC08F03716210EE82EFED728
:10182E00000036282F6E000E306E9AEC08F0371638
:10183E0037501200010E376E36282F6E010E306EA5
:10184E009AEC08F03716210EE82EFED70000362847
:10185E002F6E000E306E9AEC08F0371612004FEC19
:10186E000CF01F0E476E010E486E010E496E010EF2
:10187E004A6E000E4B6E2EEC0AF000EF00F0290EB1
:10188E003F6EADEC09F01F0E3E6E2CEC09F012000F
:06189E0046EC0CF0120004
:00000001FF
